:020000040800F2
:1000000000000320E10A0008390700083B07000848
:100010003D0700083F0700084107000800000000F6
:10002000000000000000000000000000430700087E
:1000300045070008000000004707000849070008BE
:10004000310B0008310B0008310B0008310B0008A0
:10005000310B0008310B0008310B0008310B000890
:10006000310B0008310B0008310B0008310B000880
:10007000310B0008310B0008310B0008310B000870
:10008000310B0008310B0008310B0008310B000860
:10009000310B0008310B0008310B0008310B000850
:1000A000310B000851070008310B0008310B000824
:1000B000310B0008310B0008310B0008310B000830
:1000C000310B0008310B0008310B0008310B000820
:1000D000310B0008310B0008310B0008310B000810
:1000E000310B0008310B0008310B0008310B000800
:1000F000310B0008310B0008310B0008310B0008F0
:10010000310B0008310B0008310B0008310B0008DF
:10011000310B0008310B000861070008310B0008A3
:10012000310B000871070008310B0008310B000883
:10013000310B0008310B0008310B0008310B0008AF
:10014000310B0008310B0008310B0008310B00089F
:10015000310B000881070008310B000891070008E7
:10016000310B0008310B0008310B0008310B00087F
:10017000310B0008310B0008310B000800000000B3
:10018000310B0008310B0008310B0008310B00085F
:10019000310B0008310B0008310B0008310B00084F
:0C01A0000000000000000000310B00080F
:1001AC0010B5054C237833B9044B13B10448AFF3A5
:1001BC0000800123237010BD1000002000000000FF
:1001CC00C02B000808B5034B1BB103490348AFF320
:1001DC00008008BD0000000014000020C02B0008A7
:1001EC0053B94AB9002908BF00281CBF4FF0FF3192
:1001FC004FF0FF3000F06AB9ADF1080C6DE904CE98
:10020C0000F006F8DDF804E0DDE9022304B07047E5
:10021C002DE9F047089D0C46002B4ED194468C4599
:10022C008646B2FA82F262D94AB1C2F120039140F9
:10023C0020FA03F30CFA02FC194300FA02FE4FEA0F
:10024C001C471FFA8CF6B1FBF7F44FEA1E4307FB71
:10025C00141143EA014304FB06F199420AD91CEB41
:10026C00030304F1FF3080F01281994240F20F81B8
:10027C00023C6344591A1FFA8EF3B1FBF7F007FBEB
:10028C00101143EA014300FB06F69E420AD91CEB0F
:10029C00030300F1FF3180F0FC809E4240F2F980B4
:1002AC00634402389B1B40EA044000211DB1D3403B
:1002BC000022C5E90032BDE8F0878B4205D90DB1AB
:1002CC00C5E9000100210846F5E7B3FA83F10029DE
:1002DC0046D1A34202D39042C0F0F080861A64EB60
:1002EC0003030120002DE6D0C5E90063E3E7002AF3
:1002FC0040F09080A1EB0C044FEA1C481FFA8CF7DD
:10030C000121B4FBF8F64FEA1E4308FB164443EAFE
:10031C00044307FB06F0984208D91CEB030306F1D3
:10032C00FF3402D2984200F2CD8026461C1A1FFAE6
:10033C008EF3B4FBF8F008FB104443EA044300FBD3
:10034C0007F79F4208D91CEB030300F1FF3402D2DC
:10035C009F4200F2B0802046DB1B40EA0640A5E736
:10036C00C1F120068B4022FA06F71F4320FA06FC47
:10037C0004FA01F343EA0C03F44000FA01F8380CD8
:10038C004FEA1349B4FBF0FE1FFA87FC00FB1E4436
:10039C0049EA04440EFB0CF9A14502FA01F20AD910
:1003AC003C190EF1FF3A80F08480A14540F2818027
:1003BC00AEF1020E3C44A4EB09041FFA83F9B4FB22
:1003CC00F0F300FB134449EA044403FB0CFCA44582
:1003DC0007D93C1903F1FF3067D2A44565D9023B1C
:1003EC003C4443EA0E40A0FB0293A4EB0C049C4259
:1003FC00CE469C4651D34ED055B1B8EB0E0364EBB0
:10040C000C0404FA06F6CB401E43CC40C5E900644C
:10041C00002150E7C2F1200320FA03F10CFA02FC90
:10042C0024FA03F394400C434FEA1C4800FA02FEF2
:10043C001FFA8CF7B3FBF8F008FB1031230C43EADE
:10044C00014300FB07F1994208D91CEB030300F1AF
:10045C00FF362CD299422AD9023863445B1AA4B2D3
:10046C00B3FBF8F108FB113344EA034401FB07F337
:10047C00A34208D91CEB040401F1FF3613D2A342AA
:10048C0011D902396444E41A41EA004139E70446BF
:10049C00F0E6084606E7C845AED2B9EB020E63EBB0
:1004AC00070C0138A8E73146EDE7034699E73046DB
:1004BC00D4E7D6467FE7634402384DE70646234629
:1004CC0008460FE7023E634430E700BF704700BFA9
:1004DC0038B50B4B834200D038BD0A4D1C460A463A
:1004EC002946184601F08AFF32222946204602F09E
:1004FC009BFA054B1A68136823F008031360EBE7AB
:10050C00B00100202C000020F000002010B582B0BB
:10051C00002401940D4B1A6B42F480021A631B6B7E
:10052C0003F480030193019B22462146392000F0FD
:10053C00A1FB392000F0AEFB22462146452000F0FD
:10054C0099FB452000F0A6FB02B010BD003802401C
:10055C0030B58BB000240594069407940894099444
:10056C000094234B1A6B42F040021A631A6B02F090
:10057C0040020092009A01941A6B42F001021A6335
:10058C001A6B02F001020192019A02941A6B42F06A
:10059C0080021A631A6B02F080020292029A039490
:1005AC001A6B42F010021A631A6B02F010020392DB
:1005BC00039A04941A6B42F020021A631B6B03F02B
:1005CC0020030493049B0B4D22464FF48041284694
:1005DC0000F0E2FE4FF48043059301230693079449
:1005EC00089405A9284600F0D1FD0BB030BD00BF22
:1005FC00003802400014024072B6FEE700B595B018
:10060C003022002108A802F042FA0023039304933D
:10061C000593069307930193234A116C41F0805183
:10062C001164126C02F080520192019A02931F4BDA
:10063C001A6842F440421A601B6803F44043029368
:10064C00029B012308934FF48033099302230E93EA
:10065C004FF480020F9206221092B4221192129340
:10066C000423139308A800F0DBFEB0B900F09AFE47
:10067C00A8B90F23039302230493002305934FF48B
:10068C00A05306934FF480530793052103A801F060
:10069C0017F930B915B05DF804FBFFF7ADFFFFF7A4
:1006AC00ABFFFFF7A9FF00BF00380240007000400D
:1006BC0008B500F05FFAFFF7A1FFFFF749FFFFF75E
:1006CC0025FF00F0F9F800F067F800F06DF9322220
:1006DC000549064802F0A8F9054B1A68136823F07F
:1006EC0008031360FEE700BF2C000020B0010020BF
:1006FC00F000002082B0002100910B4B5A6C42F4A8
:10070C0080425A645A6C02F480420092009A019121
:10071C001A6C42F080521A641B6C03F080530193E4
:10072C00019B02B0704700BF00380240FEE7FEE7B5
:10073C00FEE7FEE7FEE770477047704708B500F02C
:10074C0033FA08BD08B5024801F05BFA08BD00BFDA
:10075C00A800002008B5024801F053FA08BD00BFFC
:10076C006000002008B5024800F022FC08BD00BF64
:10077C00F000002008B5024800F01AFC08BD00BFCC
:10078C005001002008B5024801F05EFF08BD00BF13
:10079C00B00100207047000000B583B00023009327
:1007AC0001930F480F4A026042F227324260836085
:1007BC0042F20F72C260836101F03EFB50B900231C
:1007CC00009301936946064801F080FC28B903B0F8
:1007DC005DF804FBFFF710FFF1E7FFF70DFFF6E7FD
:1007EC00600000200010004000B583B00368184A78
:1007FC00934205D0174A934216D003B05DF804FB20
:10080C0000210091144B5A6C42F001025A645B6C4B
:10081C0003F001030093009B0A46192000F02AFA0A
:10082C00192000F037FAE8E7002101910A4B1A6C05
:10083C0042F010021A641B6C03F010030193019B2D
:10084C000A46362000F016FA362000F023FAD4E7D8
:10085C0000000140001000400038024000B587B095
:10086C0000230193029303930493059302680F4BA7
:10087C009A4202D007B05DF804FB002300930C4BA6
:10088C001A6B42F010021A631B6B03F010030093F7
:10089C00009B4FF400630193022302930123059301
:1008AC0001A9044800F072FCE4E700BF000001401D
:1008BC00003802400010024010B596B0002412948B
:1008CC001394149415941094119409940A940B9401
:1008DC000C940D940E940F942022214601A802F042
:1008EC00D6F82F482F4B036047F22F534360846098
:1008FC0041F26F73C36004614461846101F09CFA3E
:10090C0000283AD14FF48053129312A9244801F0D5
:10091C005EFB002834D1224801F0BAFA002832D10B
:10092C0000231093119310A91D4801F0CFFB002850
:10093C002CD10023099340F6B8320A920B930C93F6
:10094C000D930E930F93042209A9154801F004FB93
:10095C00F8B90023019302930393049305934FF486
:10096C0000520692089301A90D4801F0F5FB98B9C5
:10097C000B48FFF773FF16B010BDFFF73DFEC1E744
:10098C00FFF73AFEC7E7FFF737FEC9E7FFF734FE7C
:10099C00CFE7FFF731FEDCE7FFF72EFEE8E700BFFD
:1009AC00A80000200000014008B50A480A4B03606B
:1009BC004FF4E133436000238360C36003610C2276
:1009CC0042618361C36101F0E9FC00B908BDFFF726
:1009DC0013FEFBE7B00100200014014030B589B0D4
:1009EC000023039304930593069307930268334BF8
:1009FC009A4201D009B030BD04460025019503F59B
:100A0C0092335A6C42F020025A645A6C02F0200263
:100A1C000192019A02951A6B42F040021A631B6B09
:100A2C0003F040030293029B4FF48443039302238D
:100A3C000493032306930823079303A9204800F08B
:100A4C00A5FB2048204B03604FF0206343604023FC
:100A5C008360C5604FF48063036145618561C56146
:100A6C000562456200F0ACF910BB164BA3639C63A6
:100A7C001648174B03604FF02063436000238360DC
:100A8C00C3604FF48062026143618361C36103629E
:100A9C00436200F095F970B90C4BE3639C63002240
:100AAC001146472000F0E6F8472000F0F3F8A1E7E4
:100ABC00FFF7A2FDD9E7FFF79FFDEDE7001401401A
:100ACC000018024050010020A0640240F0000020F9
:100ADC0028640240DFF834D0FFF75CFE0C480D4967
:100AEC000D4A002302E0D458C4500433C4188C427D
:100AFC00F9D30A4A0A4C002301E013600432A242E3
:100B0C00FBD301F0CDFFFFF7D3FD704700000320AE
:100B1C0000000020100000200C2C00081000002009
:100B2C0094030020FEE7000010B504460E4B1A7823
:100B3C004FF47A73B3FBF2F30C4A1068B0FBF3F08A
:100B4C0000F0ACF868B90F2C01D901200AE00022A2
:100B5C0021464FF0FF3000F08DF8054B1C60002053
:100B6C0000E0012010BD00BF0400002000000020A8
:100B7C000800002008B50B4B1A6842F400721A608A
:100B8C001A6842F480621A601A6842F480721A6021
:100B9C00032000F05DF80F20FFF7C6FFFFF7AAFD5A
:100BAC00002008BD003C0240034A1168034B1B782F
:100BBC000B441360704700BFF801002004000020B4
:100BCC00014B1868704700BFF8010020002807DBB4
:100BDC0000F01F02400901239340024A42F82030E2
:100BEC00704700BF00E100E0002808DB0901C9B232
:100BFC0000F1604000F5614080F80013704700F090
:100C0C000F000901C9B2014B1954704714ED00E0F3
:100C1C0000B500F00700C0F1070CBCF1040F28BFB1
:100C2C004FF0040C031D062B0FD9C31E4FF0FF3ED3
:100C3C000EFA0CF021EA000199400EFA03FE22EAAA
:100C4C000E0241EA02005DF804FB0023EEE700000F
:100C5C00074AD36823F4E0631B041B0C000200F466
:100C6C00E060034343F0BF6343F40033D360704749
:100C7C0000ED00E010B50446054BD868C0F3022027
:100C8C00FFF7C6FF01462046FFF7AEFF10BD00BFC1
:100C9C0000ED00E008B5FFF799FF08BD0138B0F191
:100CAC00807F0BD24FF0E0235861054AF02182F887
:100CBC0023100020986107221A61704701207047A9
:100CCC0000ED00E030B405682C6824F480242C601E
:100CDC00046863608368402B05D0036899600368DF
:100CEC00DA6030BC704703689A600368D960F8E733
:100CFC0010B40368D9B210390B4AA2FB0142120995
:100D0C000A4CA25CC2655F2908D923F47F7323F0D7
:100D1C00030304338365806D10BC704723F47F7329
:100D2C0023F003038365F6E7ABAAAAAAF02B00080D
:100D3C00836A826992B9012B0AD0022B02D00BB1C3
:100D4C0000207047C36A13F0807F28D100207047C1
:100D5C00C36AB3F1C07F24D000207047B2F5005FA6
:100D6C0009D0022B25D9032B25D1C36A13F0807F20
:100D7C0023D100207047032B03D8DFE803F01404C1
:100D8C00140A00207047C36A13F0807F0DD1002035
:100D9C007047C36AB3F1C07F09D0002070470120AF
:100DAC0070470120704701207047012070470120D7
:100DBC0070470120704700207047012070470000E9
:100DCC0070B50446FFF7FCFE002C5BD005460223F1
:100DDC0084F83530002384F834302268136823F00B
:100DEC000103136023681A6812F0010F0AD0FFF791
:100DFC00E7FE431B052BF5D920236365032084F8FC
:100E0C00350070BD1A68204911406268A068024321
:100E1C00E06802432069024360690243A06902430F
:100E2C00E0690243206A02430A43616A04291ED026
:100E3C001A602668756925F00705636A1D43042B43
:100E4C0007D1A36A1D43E36A1BB12046FFF770FF6D
:100E5C0090B975612046FFF74BFFE26D3F2393403D
:100E6C00836000206065012384F83530C9E7E16AAE
:100E7C00206B01430A43DBE740236365012084F8C0
:100E8C003500BEE70120BCE73F8010F038B50446C2
:100E9C00856D90F8340001282BD0012084F83400A3
:100EAC0094F83500C0B2012804D0002384F8343003
:100EBC00022038BD022084F83500002060652046F1
:100ECC00FFF700FFE26D3F239340AB60226813688D
:100EDC0043F016031360236C23B12268136843F0AC
:100EEC00080313602268136843F0010313600020A9
:100EFC00DFE70220DDE770B50446866DFFF760FE84
:100F0C0094F83530DBB2022B06D0802363650023C6
:100F1C0084F83430012070BD05462268136823F034
:100F2C00160313602268536923F080035361236C0A
:100F3C00E3B12268136823F0080313602268136876
:100F4C0023F00103136023681B6813F0010F11D009
:100F5C00FFF736FE431B052BF5D9202363650320D1
:100F6C0084F83500002384F83430D4E7A36C002BCC
:100F7C00DFD1E3E7E26D3F239340B360012384F8B4
:100F8C003530002084F83400C5E790F83530DBB2FA
:100F9C00022B03D08023436501207047052380F882
:100FAC0035300268136823F001031360002070478A
:100FBC00F0B583B0044600230193724B1D68724B4D
:100FCC00A3FB0535AD0A876D3E68C26D08239340BF
:100FDC00334210D003681A6812F0040F0BD01A6851
:100FEC0022F004021A60C26D08239340BB60436D6B
:100FFC0043F001034365E26D01239340334209D072
:10100C002268526912F0800F04D0BB60636D43F00C
:10101C0002036365E26D04239340334209D02268D6
:10102C00126812F0020F04D0BB60636D43F004032E
:10103C006365E26D10239340334224D0226812681A
:10104C0012F0080F1FD0BB6023681A6812F4802FAF
:10105C000DD01B6813F4002F04D1236C9BB12046D8
:10106C00984710E0A36C73B1204698470BE01A68C0
:10107C0012F4807F03D11A6822F008021A60236CE4
:10108C000BB120469847E26D20239340334255D054
:10109C002268126812F0100F50D0BB6094F83530F3
:1010AC00DBB2052B0ED023681A6812F4802F33D0D4
:1010BC001B6813F4002F2AD1636C002B3ED0204602
:1010CC0098473BE02268136823F0160313602268EC
:1010DC00536923F080035361236CA3B12268136816
:1010EC0023F008031360E26D3F239340BB600123A0
:1010FC0084F83530002384F83430236D002B3FD036
:10110C00204698473CE0A36C002BE7D1EBE7E36B60
:10111C00A3B12046984711E01A6812F4807F09D1D8
:10112C001A6822F010021A60012384F8353000236B
:10113C0084F83430E36B0BB120469847636DFBB1F8
:10114C00636D13F0010F17D0052384F83530226836
:10115C00136823F001031360019B01330193AB422D
:10116C0004D823681B6813F0010FF5D1012384F810
:10117C003530002384F83430E36C0BB120469847AB
:10118C0003B0F0BD00000020B5814E1B00230F2BD7
:10119C0000F2F98030B583B069E085684FEA430E00
:1011AC00032404FA0EF425EA0405CC6804FA0EF4C0
:1011BC002C438460446824EA02044A68C2F3001297
:1011CC009A402243426060E0DC08083450F8242046
:1011DC0003F00705AD004FF00F0E0EFA05FE22EAE4
:1011EC000E0E0A69AA4042EA0E0240F8242060E082
:1011FC00092200E0002202FA0EF22A430234624D68
:10120C0045F82420614A94686FEA0C0224EA0C0524
:10121C00D1F804E01EF4801F01D04CEA04055B4CAD
:10122C00A560E46802EA0405D1F804E01EF4001F8E
:10123C0001D04CEA0405554CE560646802EA0405EB
:10124C00D1F804E01EF4003F01D04CEA04054F4CE9
:10125C006560246822404D6815F4803F01D04CEA4B
:10126C0004024A4C226001330F2B00F28A800122C7
:10127C009A400C6804EA020C32EA0404F3D14C687C
:10128C0004F00304013C012C87D94A6802F00302E4
:10129C00032A09D0C4685D000322AA4024EA020490
:1012AC008A68AA402243C2604A6802F00302022AFA
:1012BC008AD004684FEA430E032202FA0EF224EAA3
:1012CC0002044A6802F0030202FA0EF222430260A0
:1012DC004A6812F4403FC6D0002201922C4A546C4A
:1012EC0044F480445464526C02F480420192019A9A
:1012FC009C08A51C244A52F8255003F0030E4FEA13
:10130C008E0E0F2202FA0EF225EA0205214A9042B5
:10131C003FF470AF02F58062904222D002F58062F9
:10132C00904220D002F5806290421ED002F580627D
:10133C0090421CD002F5806290421AD002F5806275
:10134C00904218D002F58062904216D002F580626D
:10135C00904214D002F5806290423FF449AF0A22C9
:10136C0049E7012247E7022245E7032243E704222B
:10137C0041E705223FE706223DE707223BE708222B
:10138C0039E703B030BD704700380140003C0140E4
:10139C0000380240000002400AB181617047090424
:1013AC008161704710B582B000230193194B1A6C00
:1013BC0042F080521A641B6C03F080530193019B22
:1013CC00154B01221A64FFF7FBFB0446134B5B68B9
:1013DC0013F4803F08D1FFF7F3FB001BB0F57A7FC5
:1013EC00F4D9032002B010BD0B4B01225A64FFF755
:1013FC00E7FB0446094B5B6813F4003F07D1FFF78A
:10140C00DFFB001BB0F57A7FF4D90320EAE700205C
:10141C00E8E700BF0038024000000E4200700040B8
:10142C00002800F0E08170B582B00446036813F028
:10143C00010F3BD09F4B9B6803F00C03042B2CD06B
:10144C009C4B9B6803F00C03082B21D06368B3F50D
:10145C00803F4FD0B3F5A02F52D0964B1A6822F490
:10146C0080321A601A6822F480221A606368002B9A
:10147C0050D0FFF7A5FB05468E4B1B6813F4003FBD
:10148C0014D1FFF79DFB401B6428F5D90320B1E173
:10149C00884B5B6813F4800FD8D0864B1B6813F411
:1014AC00003F03D06368002B00F09F81236813F08A
:1014BC00020F54D07F4B9B6813F00C0F3ED07D4B2A
:1014CC009B6803F00C03082B33D0E368002B68D027
:1014DC00794B01221A60FFF773FB0546754B1B68AD
:1014EC0013F0020F54D1FFF76BFB401B0228F5D908
:1014FC0003207FE16F4A136843F480331360B5E730
:10150C006C4B1A6842F480221A601A6842F48032DA
:10151C001A60ABE7FFF754FB0546664B1B6813F4E8
:10152C00003FC3D0FFF74CFB401B6428F5D90320C8
:10153C0060E1604B5B6813F4800FC6D15D4B1B6898
:10154C0013F0020F03D0E368012B40F05081594A8D
:10155C00136823F0F803216943EAC103136023687D
:10156C0013F0080F42D063696BB3534B0122C3F8DD
:10157C00802EFFF725FB05464E4B5B6F13F0020FD9
:10158C0034D1FFF71DFB401B0228F5D9032031E1B4
:10159C00484A136823F0F803216943EAC103136036
:1015AC00DDE7454B00221A60FFF70AFB0546414B6D
:1015BC001B6813F0020FD2D0FFF702FB401B02286E
:1015CC00F5D9032016E13C4B0022C3F8802EFFF71F
:1015DC00F7FA0546374B5B6F13F0020F06D0FFF797
:1015EC00EFFA401B0228F5D9032003E1236813F01E
:1015FC00040F77D02F4B1B6C13F0805F33D100237B
:10160C0001932C4B1A6C42F080521A641B6C03F041
:10161C0080530193019B0125284B1B6813F4807F99
:10162C0023D0A368012B34D0052B38D0214B1A6F53
:10163C0022F001021A671A6F22F004021A67A368DB
:10164C00002B3DD0FFF7BCFA06461A4B1B6F13F06C
:10165C00020F46D1FFF7B4FA801B41F2883398424F
:10166C00F3D90320C6E00025D6E7144A136843F4E7
:10167C0080731360FFF7A4FA0646104B1B6813F433
:10168C00807FCED1FFF79CFA801B0228F5D903206E
:10169C00B0E0084A136F43F001031367CFE7054B23
:1016AC001A6F42F004021A671A6F42F001021A67AD
:1016BC00C5E700BF00380240000047420070004000
:1016CC00FFF77EFA0646524B1B6F13F0020F08D041
:1016DC00FFF776FA801B41F288339842F3D9032046
:1016EC0088E0EDB9A369002B00F08380484A92682A
:1016FC0002F00C02082A51D0022B17D0454B0022C5
:10170C001A66FFF75DFA0446414B1B6813F0007F25
:10171C0042D0FFF755FA001B0228F5D9032069E0E7
:10172C003B4A136C23F080531364DBE7394B0022E4
:10173C001A66FFF745FA0546354B1B6813F0007F18
:10174C0006D0FFF73DFA401B0228F5D9032051E0E3
:10175C00E369226A1343626A43EA8213A26A52085B
:10176C00013A43EA0243E26A43EA0263284A5360BD
:10177C00284B01221A66FFF723FA0446244B1B68F8
:10178C0013F0007F06D1FFF71BFA001B0228F5D9D6
:10179C0003202FE000202DE000202BE0012B2BD08C
:1017AC001B4B5B6803F48001E269914226D103F084
:1017BC003F02216A8A4223D1616A47F6C0721A40FD
:1017CC00B2EB811F1ED103F44031A26A5208013AD8
:1017DC00B1EB024F18D103F07063E26AB3EB026F06
:1017EC0014D1002006E001207047012002E0012006
:1017FC0000E0002002B070BD0120FBE70120F9E7FA
:10180C000120F7E70120F5E70120F3E70120F1E7DC
:10181C00003802400000474208B5264B9B6803F095
:10182C000C03042B41D0082B41D1224B5A6802F0F7
:10183C003F025B6813F4800F12D01E4B5968C1F342
:10184C0088111D480023A1FB0001FEF7C9FC194BB0
:10185C005B68C3F3014301335B00B0FBF3F027E09B
:10186C00144B5868C0F388104FEA401CBCEB000CBA
:10187C006EEB0E0E4FEA8E1343EA9C634FEA8C110B
:10188C00B1EB0C0163EB0E03DB0043EA5173C900AF
:10189C0011EB000C43F10003990200234FEA8C205A
:1018AC0041EA9C51FEF79CFCD1E7034800E0034859
:1018BC0008BD00BF00380240001BB7000024F40034
:1018CC00002800F09B8070B50D4604464F4B1B68FA
:1018DC0003F00F038B4208D2CBB24C4A137013683F
:1018EC0003F00F038B4240F08B80236813F0020F40
:1018FC0017D013F0040F04D0454A936843F4E05317
:10190C009360236813F0080F04D0414A936843F4A2
:10191C00604393603E4A936823F0F003A1680B4345
:10192C009360236813F0010F32D06368012B21D030
:10193C009A1E012A25D9364A126812F0020F61D07C
:10194C0033498A6822F0030213438B60FFF738F99E
:10195C0006462F4B9B6803F00C036268B3EB820FB7
:10196C0016D0FFF72DF9801B41F288339842F0D93D
:10197C00032042E0264A126812F4003FE0D1012015
:10198C003BE0234A126812F0007FD9D1012034E0E9
:10199C001E4B1B6803F00F03AB4207D9EAB21B4B7B
:1019AC001A701B6803F00F03AB422DD1236813F0A0
:1019BC00040F06D0164A936823F4E053E1680B43F6
:1019CC009360236813F0080F07D0114A936823F42F
:1019DC006043216943EAC1039360FFF71DFF0C4B81
:1019EC009B68C3F303130B4AD35CD8400A4B1860B3
:1019FC000A4B1868FFF798F8002070BD012070475B
:101A0C000120FAE70120F8E70120F6E7003C02404C
:101A1C0000380240E02B00080000002008000020E5
:101A2C00014B1868704700BF0000002008B5FFF795
:101A3C00F7FF044B9B68C3F38223034AD35CD84063
:101A4C0008BD00BF00380240D82B000808B5FFF7CE
:101A5C00E7FF044B9B68C3F34233034AD35CD84083
:101A6C0008BD00BF00380240D82B000830B4036A10
:101A7C00026A22F0010202624268846924F0730C4B
:101A8C000C6844EA0C0423F0020C8B6843EA0C0348
:101A9C00114DA84203D005F58065A84205D123F06D
:101AAC000803CD682B4323F004030B4DA84203D04D
:101ABC0005F58065A84207D122F440724D6945EACC
:101ACC00020C8A6942EA0C02426084614A684263F1
:101ADC00036230BC704700BF0000014030B4036AA1
:101AEC00026A22F4807202624268C46924F0730CA8
:101AFC000C6844EA0C0523F400738C6843EA042355
:101B0C00114CA04203D004F58064A04206D123F40A
:101B1C000063CC6843EA042323F480630A4CA0429C
:101B2C0003D004F58064A04207D122F440524C69E2
:101B3C0042EA04128C6942EA04124260C5614A68A6
:101B4C00C263036230BC70470000014030B4036ACA
:101B5C00026A22F4805202624468C26922F4E642AC
:101B6C000D6842EA052223F400538D6843EA0533DD
:101B7C00094DA84203D005F58065A84204D124F490
:101B8C0080444D6944EA85144460C2614A68026429
:101B9C00036230BC704700BF0000014010B4036A00
:101BAC00046A24F001040462846924F0F00C4CEA09
:101BBC00021223F00A030B438261036210BC7047CC
:101BCC0010B4036A046A24F010040462846924F4D7
:101BDC00704C4CEA023223F0A00343EA01138261F9
:101BEC00036210BC7047836823F070030B4343F00F
:101BFC0007038360704770477047704770477047A2
:101C0C00704770B504460368DE681D6915F0020F55
:101C1C0010D016F0020F0DD06FF002021A610123E2
:101C2C00037703689B6913F0030F5ED0FFF7E6FFA1
:101C3C000023237715F0040F12D016F0040F0FD0E9
:101C4C0023686FF004021A610223237723689B69CF
:101C5C0013F4407F4FD02046FFF7D0FF00232377AB
:101C6C0015F0080F12D016F0080F0FD023686FF084
:101C7C0008021A61042323772368DB6913F0030F2E
:101C8C0040D02046FFF7BAFF0023237715F0100F42
:101C9C0012D016F0100F0FD023686FF010021A61DB
:101CAC00082323772368DB6913F4407F31D0204667
:101CBC00FFF7A4FF0023237715F0010F02D016F0D5
:101CCC00010F2DD115F0800F02D016F0800F2FD1FF
:101CDC0015F0400F02D016F0400F31D115F0200F47
:101CEC0002D016F0200F33D170BDFFF786FF2046CF
:101CFC00FFF785FF9CE72046FFF77FFF2046FFF7A5
:101D0C007EFFABE72046FFF778FF2046FFF777FF13
:101D1C00BAE72046FFF771FF2046FFF770FFC9E7CF
:101D2C0023686FF001021A612046FFF765FFC9E7CF
:101D3C0023686FF080021A61204600F037FAC7E77B
:101D4C0023686FF040021A612046FFF759FFC5E780
:101D5C0023686FF020021A61204600F026FAC3E7D0
:101D6C000368344A904212D0B0F1804F0FD0A2F5E4
:101D7C007C4290420BD002F58062904207D002F573
:101D8C008062904203D002F57842904203D123F056
:101D9C0070034A681343274A90422AD0B0F1804F0F
:101DAC0027D0A2F57C42904223D002F5806290426B
:101DBC001FD002F5806290421BD002F5784290420F
:101DCC0017D002F57052904213D002F58062904207
:101DDC000FD002F5806290420BD0A2F5983290425F
:101DEC0007D002F58062904203D002F580629042E7
:101DFC0003D123F44073CA68134323F080034A6968
:101E0C00134303608B68C3620B688362094B98426F
:101E1C0003D003F58063984201D10B69036301235E
:101E2C004361036913F0010F03D0036923F001032D
:101E3C00036170470000014040B310B5044690F8B0
:101E4C003D30F3B1022384F83D30214651F8040BA8
:101E5C00FFF786FF012384F8463084F83E3084F87F
:101E6C003F3084F8403084F8413084F8423084F8B4
:101E7C00433084F8443084F8453084F83D300020F9
:101E8C0010BD80F83C30FEF7AFFCDBE7012070475B
:101E9C0040B310B5044690F83D30F3B1022384F8FA
:101EAC003D30214651F8040BFFF75AFF012384F80B
:101EBC00463084F83E3084F83F3084F8403084F863
:101ECC00413084F8423084F8433084F8443084F84C
:101EDC00453084F83D30002010BD80F83C30FFF7D1
:101EEC008AFEDBE70120704730B4036A026A22F0F5
:101EFC00100202624468826922F4E6420D6842EAEA
:101F0C00052223F020038D6843EA0513114DA842E6
:101F1C0003D005F58065A84206D123F08003CD6877
:101F2C0043EA051323F040030A4DA84203D005F5FC
:101F3C008065A84207D124F440644D6944EA8504C5
:101F4C008D6944EA8504446082614A688263036255
:101F5C0030BC70470000014090F83C30012B28D079
:101F6C0010B50446012380F83C300C2A1CD8DFE85D
:101F7C0002F0071B1B1B0C1B1B1B111B1B1B160036
:101F8C000068FFF773FD00200FE00068FFF7ACFF5F
:101F9C0000200AE00068FFF7A1FD002005E00068C2
:101FAC00FFF7D4FD002000E00120002384F83C3032
:101FBC0010BD0220704710B4846824F47F4C42EAB0
:101FCC0003220A4342EA0C02826010BC704790F86C
:101FDC003C30012B78D010B50446012380F83C30FE
:101FEC00022380F83D300268936823F47F4323F08A
:101FFC00770393600B68602B4CD029D8402B54D0BE
:10200C000CD9502B22D1CA6849680068FFF7C6FD6D
:10201C0050212068FFF7E7FD002005E0202B0DD0B4
:10202C0009D9302B0AD00120012384F83D3000233C
:10203C0084F83C3010BD0BB1102B05D1194620682B
:10204C00FFF7D1FD0020EFE70120EDE70120EBE7E2
:10205C00B3F5805F34D0B3F5005F0CD1CB684A6820
:10206C0089680068FFF7A7FF2268936843F48043F0
:10207C0093600020D8E7702B24D1CB684A6889681C
:10208C000068FFF798FF2268936843F0770393602A
:10209C000020C9E7CA6849680068FFF791FD602114
:1020AC002068FFF7A0FD0020BEE7CA6849680068F9
:1020BC00FFF774FD40212068FFF795FD0020B3E782
:1020CC000020B1E70120AFE70220704790F83C20D8
:1020DC00012A3CD010B40346012280F83C20022295
:1020EC0080F83D2002685068946820F0700C0868F5
:1020FC0040EA0C0050601A68164882421AD0B2F1BD
:10210C00804F17D0A0F57C40824213D000F5806040
:10211C0082420FD000F5806082420BD000F57840EF
:10212C00824207D000F57050824203D0A0F5943063
:10213C00824204D124F08004496821439160012239
:10214C0083F83D20002083F83C0010BC704702202F
:10215C00704700BF00000140024690F83C30012B54
:10216C0021D0012380F83C30CB6823F4407388687D
:10217C00034323F480634868034323F40063086833
:10218C00034323F480530869034323F40053486941
:10219C00034323F48043C9690B4311684B6400204B
:1021AC0082F83C0070470220704770477047026805
:1021BC0002F10C0353E8003F23F0C0030C3242E859
:1021CC0000310029F3D1202380F841307047026898
:1021DC0002F10C0353E8003F23F490730C3242E8F5
:1021EC0000310029F3D1026802F1140353E8003FD7
:1021FC0023F00103143242E800310029F3D1036BC0
:10220C00012B05D0202380F8423000230363704754
:10221C00026802F10C0353E8003F23F010030C3268
:10222C0042E800310029F3D1ECE790F84130DBB201
:10223C00212B01D0022070478368B3F5805F17D043
:10224C00036A5A1C02621A7803685A60C38C9BB2E8
:10225C00013B9BB2C3844BB90268D36823F0800363
:10226C00D3600268D36843F04003D360002070470A
:10227C000369002BE4D1036A1B880268C3F30803CB
:10228C005360036A02330362E0E7000010B50446B2
:10229C000268136923F44053C1680B4313618368CC
:1022AC0002691A4343691A43C3691A430168CB682C
:1022BC0023F4164323F00C031343CB6002685369D9
:1022CC0023F4407381690B4353610368314A934291
:1022DC0006D002F58062934202D0FFF7A7FB01E023
:1022EC00FFF7B4FBE369B3F5004F29D000210318C5
:1022FC0049411B1841F10001C90041EA5371DB004F
:10230C00181863684FEA83024FEA937341F1000196
:10231C00FDF766FF204AA2FB00314909642303FB49
:10232C0011031B013233A2FB03235B0903F0F00200
:10233C0002EB011203F00F03216813448B6010BDF4
:10234C000023021843EB0301121841F10001C900EC
:10235C0041EA5271D200101841F1000162689218E2
:10236C005B41FDF73DFF0C4AA2FB00314909642398
:10237C0003FB1103DB003233A2FB03235B095A007E
:10238C0002F4F87202EB011203F007032168134404
:10239C008B60D4E7001001401F85EB5160B310B582
:1023AC00044690F8413013B3242384F8413022685A
:1023BC00D36823F40053D3602046FFF767FF2268ED
:1023CC00136923F4904313612268536923F02A03A1
:1023DC0053612268D36843F40053D36000206064D7
:1023EC00202384F8413084F84230606310BD80F8BB
:1023FC004030FEF7F3FAD7E70120704738B51346A3
:10240C0090F84120D2B2202A2FD1044600292ED098
:10241C000BB9012038BD01628384C384002242645D
:10242C00212084F84100A06B124DC563A06B124DA6
:10243C000564A06B114DC564A06B02652268043263
:10244C00A06BFEF723FD23686FF040021A60226830
:10245C0002F1140353E8003F43F08003143242E8C6
:10246C0000310029F3D10020D4E70220D2E701206B
:10247C00D0E700BF8F240008F724000807250008C8
:10248C00704708B50346806B1B681B6813F4807F8C
:10249C001AD10023C384026802F1140353E8003FED
:1024AC0023F08003143242E800310029F3D1026892
:1024BC0002F10C0353E8003F43F040030C3242E8B6
:1024CC0000310029F3D108BDFFF7DAFFFBE708B5AF
:1024DC000168CA6822F04002CA60202280F84120BC
:1024EC00FFF7CEFF002008BD704708B5806BFFF7E3
:1024FC00FBFF08BD70477047704710B5846B2368AD
:10250C005A6994F84130DBB2212B10D023685A69F8
:10251C0002F0400294F84230DBB2222B11D0636CF3
:10252C0043F0100363642046FFF7E6FF10BD02F092
:10253C008002002AEAD00023E3842046FFF737FE0E
:10254C00E4E7002AEBD00023E3852046FFF73FFEAB
:10255C00E5E708B5806B0023C385C384FFF7CCFF88
:10256C0008BD90F84230DBB2222B69D18368B3F5F9
:10257C00805F4FD0826AB3F5805F04D0002B56D1B8
:10258C000369002B53D103685B681370836A0133B2
:10259C008362C38D9BB2013B9BB2C385002B51D18F
:1025AC0000B583B00268D36823F02003D3600268BF
:1025BC00D36823F48073D3600268536923F001035A
:1025CC005361202380F8423000234363036B012BBB
:1025DC0033D100230363026802F10C0353E8003F7C
:1025EC0023F010030C3242E800310029F3D10368C8
:1025FC001A6812F0100F06D0002201921A6801928C
:10260C005B680193019B818DFDF762FF002003B095
:10261C005DF804FB0269002AACD1826A03685B682E
:10262C00C3F308031380836A02338362B1E7036840
:10263C005B6803F07F031370A8E7FFF75BFFE5E728
:10264C00022070470020704710B582B00446026823
:10265C001368D068516913F00F0F09D113F0200FD4
:10266C000CD010F0200F09D02046FFF77AFF16E0AF
:10267C0011F0010115D110F4907F12D1216B0129B9
:10268C0079D013F0800F03D010F0800F40F014813C
:10269C0013F0400F03D010F0400F40F0118102B046
:1026AC0010BD13F0010F06D010F4807F03D0626CC4
:1026BC0042F00102626413F0040F04D019B1626C91
:1026CC0042F00202626413F0020F04D019B1626C82
:1026DC0042F00402626413F0080F07D010F0200FD0
:1026EC0000D119B1626C42F008026264626C002A7B
:1026FC00D5D013F0200F02D010F0200F29D1236871
:10270C005B6903F04003626C12F0080F00D163B3F5
:10271C002046FFF75CFD23685B6913F0400F20D067
:10272C00226802F1140353E8003F23F040031432F3
:10273C0042E800310029F3D1E36B73B1624A1A65A8
:10274C00E06BFEF722FC0028A9D0E06B036D9847E4
:10275C00A5E72046FFF705FFD1E72046FFF7CCFEA3
:10276C009DE72046FFF7C8FE99E72046FFF7C4FE19
:10277C000023636493E713F0100F82D010F0100F56
:10278C003FF47FAF002301931368019353680193C7
:10279C00019B536913F0400F52D0E26B13685B68D6
:1027AC009BB2002B3FF47BAFA18D99427FF677AFA4
:1027BC00E385D369B3F5807F37D0226802F10C032F
:1027CC0053E8003F23F480730C3242E800310029B7
:1027DC00F3D1226802F1140353E8003F23F0010304
:1027EC00143242E800310029F3D1226802F11403BB
:1027FC0053E8003F23F04003143242E80031002933
:10280C00F3D1202384F8423000232363226802F1A1
:10281C000C0353E8003F23F010030C3242E8003164
:10282C000029F3D1E06BFEF766FB02236363A18DF5
:10283C00E38D9BB2C91A89B22046FDF749FE2EE7FB
:10284C00A18DE38D9BB2C91A89B2E38D9BB2002B8B
:10285C003FF425AF00293FF422AF226802F10C03AC
:10286C0053E8003F23F490730C3242E80030002808
:10287C00F3D1226802F1140353E8003F23F0010363
:10288C00143242E800300028F3D1202384F842307F
:10289C0000232363226802F10C0353E8003F23F06A
:1028AC0010030C3242E800300028F3D1022363639A
:1028BC002046FDF70DFEF2E62046FFF7B6FCEEE6ED
:1028CC002046FFF704FEEAE65F25000808B5806B9A
:1028DC0001234363036B012B02D0FFF70CFE08BDF1
:1028EC00818D4908FDF7F4FDF9E708B50346806BC7
:1028FC001B681B6813F4807F2BD10023C3850268EF
:10290C0002F10C0353E8003F23F480730C3242E8CD
:10291C0000310029F3D1026802F1140353E8003F9F
:10292C0023F00103143242E800310029F3D102688C
:10293C0002F1140353E8003F23F04003143242E841
:10294C0000310029F3D1202380F84230036B012B96
:10295C0007D000234363036B012B0FD0FFF7CAFD95
:10296C0008BD026802F10C0353E8003F23F010038A
:10297C000C3242E800310029F3D1EAE7818DFDF7F2
:10298C00A7FDEDE730B583B004461346816282851E
:10299C0000254564222280F84220C26B1F48D06378
:1029AC00E26B1F481064E26B1E48D064E26B156545
:1029BC0020680A46011DE06BFEF768FA0195236852
:1029CC001A6801925B680193019B23695BB12268D1
:1029DC0002F10C0353E8003F43F480730C3242E8DD
:1029EC0000310029F3D1226802F1140353E8003FAF
:1029FC0043F00103143242E800310029F3D122687C
:102A0C0002F1140353E8003F43F04003143242E850
:102A1C0000310029F3D1002003B030BDF7280008A5
:102A2C00D92800080725000890F84230DBB2202B8B
:102A3C0029D110B582B0044639B312B9012002B0C5
:102A4C0010BD0123036300234363FFF79BFF0028A2
:102A5C00F5D1236B012B01D00120F0E7002301936A
:102A6C0023681A6801925B680193019B226802F14A
:102A7C000C0353E8003F43F010030C3242E80031E2
:102A8C000029F3D1DBE7022070470120D7E702448D
:102A9C000346934200D1704703F8011BF9E700008D
:102AAC0070B50D4D0D4C641BA4100026A64209D127
:102ABC000B4D0C4C00F07EF8641BA4100026A642B3
:102ACC0005D170BD55F8043B98470136EEE755F833
:102ADC00043B98470136F2E7002C0008002C000854
:102AEC00002C0008082C000870477047024B13B1EB
:102AFC00024800F005B8704700000000192B0008D0
:102B0C00002301461A46184600F014B838B5074D94
:102B1C00074C641BA4101CB9BDE8384000F050B839
:102B2C00013C55F824309847F5E700BF082C000805
:102B3C000C2C00082DE9F047DFF86CA00646DAF8FB
:102B4C00000098460F469146FFF7CEFF174B1C68C6
:102B5C000CB9174C1C606568DAF800001F2D05DDF8
:102B6C00FFF7C3FF4FF0FF30BDE8F0879EB104EBD9
:102B7C0085010122C1F88890D4F88831AA4013430A
:102B8C00C4F88831022EC1F8088102BFD4F88C3108
:102B9C001343C4F88C316B1C0235636044F8257008
:102BAC00FFF7A3FF0020DFE70C000020000200204D
:102BBC0004020020F8B500BFF8BC08BC9E46704764
:0C2BCC00F8B500BFF8BC08BC9E4670477E
:102BD80000000000010203040000000000000000E3
:102BE800010203040607080900061016000610165D
:082BF80024D6FF7F010000005C
:082C0000F92A0008D1010008C7
:042C0800AD01000812
:102C0C000024F4000100000010000000FC01002072
:0400000508000AE104
:00000001FF
