:020000040800F2
:1000000000000320D1090008E1060008E30600080B
:10001000E5060008E7060008E90600080000000001
:10002000000000000000000000000000EB060008D7
:10003000ED06000800000000EF060008F1060008C9
:10004000210A0008210A0008210A0008210A0008E4
:10005000210A0008210A0008210A0008210A0008D4
:10006000210A0008210A0008210A0008210A0008C4
:10007000210A0008210A0008210A0008210A0008B4
:10008000210A0008210A0008210A0008210A0008A4
:10009000210A0008210A0008210A0008210A000894
:1000A000210A0008F9060008210A0008210A0008B0
:1000B000210A0008210A0008210A0008210A000874
:1000C000210A0008210A0008210A0008210A000864
:1000D000210A0008210A0008210A0008210A000854
:1000E000210A0008210A0008210A0008210A000844
:1000F000210A0008210A0008210A0008210A000834
:10010000210A0008210A0008210A0008210A000823
:10011000210A0008210A000809070008210A00082E
:10012000210A0008210A0008210A0008210A000803
:10013000210A0008210A0008210A0008210A0008F3
:10014000210A0008210A0008210A0008210A0008E3
:10015000210A0008210A0008210A0008210A0008D3
:10016000210A0008210A0008210A0008210A0008C3
:10017000210A0008210A0008210A000800000000E6
:10018000210A0008210A0008210A0008210A0008A3
:10019000210A0008210A0008210A0008210A000893
:0C01A0000000000000000000210A000820
:1001AC0010B5054C237833B9044B13B10448AFF3A5
:1001BC0000800123237010BD1000002000000000FF
:1001CC00EC1E000808B5034B1BB103490348AFF301
:1001DC00008008BD0000000014000020EC1E000888
:1001EC0053B94AB9002908BF00281CBF4FF0FF3192
:1001FC004FF0FF3000F06AB9ADF1080C6DE904CE98
:10020C0000F006F8DDF804E0DDE9022304B07047E5
:10021C002DE9F047089D0C46002B4ED194468C4599
:10022C008646B2FA82F262D94AB1C2F120039140F9
:10023C0020FA03F30CFA02FC194300FA02FE4FEA0F
:10024C001C471FFA8CF6B1FBF7F44FEA1E4307FB71
:10025C00141143EA014304FB06F199420AD91CEB41
:10026C00030304F1FF3080F01281994240F20F81B8
:10027C00023C6344591A1FFA8EF3B1FBF7F007FBEB
:10028C00101143EA014300FB06F69E420AD91CEB0F
:10029C00030300F1FF3180F0FC809E4240F2F980B4
:1002AC00634402389B1B40EA044000211DB1D3403B
:1002BC000022C5E90032BDE8F0878B4205D90DB1AB
:1002CC00C5E9000100210846F5E7B3FA83F10029DE
:1002DC0046D1A34202D39042C0F0F080861A64EB60
:1002EC0003030120002DE6D0C5E90063E3E7002AF3
:1002FC0040F09080A1EB0C044FEA1C481FFA8CF7DD
:10030C000121B4FBF8F64FEA1E4308FB164443EAFE
:10031C00044307FB06F0984208D91CEB030306F1D3
:10032C00FF3402D2984200F2CD8026461C1A1FFAE6
:10033C008EF3B4FBF8F008FB104443EA044300FBD3
:10034C0007F79F4208D91CEB030300F1FF3402D2DC
:10035C009F4200F2B0802046DB1B40EA0640A5E736
:10036C00C1F120068B4022FA06F71F4320FA06FC47
:10037C0004FA01F343EA0C03F44000FA01F8380CD8
:10038C004FEA1349B4FBF0FE1FFA87FC00FB1E4436
:10039C0049EA04440EFB0CF9A14502FA01F20AD910
:1003AC003C190EF1FF3A80F08480A14540F2818027
:1003BC00AEF1020E3C44A4EB09041FFA83F9B4FB22
:1003CC00F0F300FB134449EA044403FB0CFCA44582
:1003DC0007D93C1903F1FF3067D2A44565D9023B1C
:1003EC003C4443EA0E40A0FB0293A4EB0C049C4259
:1003FC00CE469C4651D34ED055B1B8EB0E0364EBB0
:10040C000C0404FA06F6CB401E43CC40C5E900644C
:10041C00002150E7C2F1200320FA03F10CFA02FC90
:10042C0024FA03F394400C434FEA1C4800FA02FEF2
:10043C001FFA8CF7B3FBF8F008FB1031230C43EADE
:10044C00014300FB07F1994208D91CEB030300F1AF
:10045C00FF362CD299422AD9023863445B1AA4B2D3
:10046C00B3FBF8F108FB113344EA034401FB07F337
:10047C00A34208D91CEB040401F1FF3613D2A342AA
:10048C0011D902396444E41A41EA004139E70446BF
:10049C00F0E6084606E7C845AED2B9EB020E63EBB0
:1004AC00070C0138A8E73146EDE7034699E73046DB
:1004BC00D4E7D6467FE7634402384DE70646234629
:1004CC0008460FE7023E634430E700BF704700BFA9
:1004DC0008B50268054B1B689A4200D008BD4FF462
:1004EC008041034800F086FCF8E700BF2C00002098
:1004FC000014024030B58BB0002405940694079488
:10050C00089409940094234B1A6B42F001021A636D
:10051C001A6B02F001020092009A01941A6B42F0DD
:10052C0080021A631A6B02F080020192019A029403
:10053C001A6B42F004021A631A6B02F00402029264
:10054C00029A03941A6B42F010021A631A6B02F0AF
:10055C0010020392039A04941A6B42F020021A635D
:10056C001B6B03F020030493049B0B4D22464FF4AA
:10057C008041284600F038FC4FF48043059301235A
:10058C0006930794089405A9284600F027FB0BB0A6
:10059C0030BD00BF003802400014024072B6FEE7C6
:1005AC0000B595B03022002108A801F007FC00230B
:1005BC00039304930593069307930193234A116CB9
:1005CC0041F080511164126C02F080520192019A38
:1005DC0002931F4B1A6842F440421A601B6803F4E2
:1005EC0040430293029B012308934FF480330993F9
:1005FC0002230E934FF480020F9206221092B42223
:10060C00119212930423139308A800F03BFCB0B989
:10061C0000F0FAFBA8B90F230393022304930023E1
:10062C0005934FF4A05306934FF480530793052181
:10063C0003A800F077FE30B915B05DF804FBFFF7A6
:10064C00ADFFFFF7ABFFFFF7A9FF00BF003802407B
:10065C000070004000B585B000F004FAFFF7A0FF71
:10066C00FFF748FF00F0E4F800F052F800F058F9FA
:10067C00084A01AB07CA03C323F8022B120C1A70E9
:10068C000B2201A9044801F07DFB4FF47A7000F0B5
:10069C0015FAF5E7041F0008BC00002082B0002109
:1006AC0000910B4B5A6C42F480425A645A6C02F41F
:1006BC0080420092009A01911A6C42F080521A64A6
:1006CC001B6C03F080530193019B02B0704700BF79
:1006DC0000380240FEE7FEE7FEE7FEE7FEE7704764
:1006EC007047704708B500F0D7F908BD08B5024847
:1006FC0000F0B8FF08BD00BF7400002008B5024828
:10070C0000F0B0FF08BD00BF2C00002070470000B7
:10071C0000B583B00023009301930F480F4A026089
:10072C0042F227324260836042F20F72C2608361F0
:10073C0001F0B4F850B900230093019369460648C0
:10074C0001F0F6F928B903B05DF804FBFFF726FFBA
:10075C00F1E7FFF723FFF6E72C0000200010004024
:10076C0000B583B00368184A934205D0174A9342E8
:10077C0016D003B05DF804FB00210091144B5A6CA9
:10078C0042F001025A645B6C03F001030093009B7E
:10079C000A46192000F0FAF9192000F007FAE8E7E8
:1007AC00002101910A4B1A6C42F010021A641B6C66
:1007BC0003F010030193019B0A46362000F0E6F982
:1007CC00362000F0F3F9D4E700000140001000409F
:1007DC000038024000B587B00023019302930393C5
:1007EC000493059302680F4B9A4202D007B05DF850
:1007FC0004FB002300930C4B1A6B42F010021A639B
:10080C001B6B03F010030093009B4FF400630193E8
:10081C00022302930123059301A9044800F0DEF999
:10082C00E4E700BF00000140003802400010024025
:10083C0010B596B00024129413941494159410943B
:10084C00119409940A940B940C940D940E940F9497
:10085C002022214601A801F0B1FA2F482F4B03604A
:10086C0047F22F534360846041F26F73C36004619D
:10087C004461846101F012F800283AD14FF480539E
:10088C00129312A9244801F0D4F8002834D122483C
:10089C0001F030F8002832D100231093119310A9E5
:1008AC001D4801F045F900282CD10023099340F68E
:1008BC00B8320A920B930C930D930E930F93042260
:1008CC0009A9154801F07AF8F8B9002301930293AD
:1008DC000393049305934FF400520692089301A9D5
:1008EC000D4801F06BF998B90B48FFF773FF16B080
:1008FC0010BDFFF753FEC1E7FFF750FEC7E7FFF748
:10090C004DFEC9E7FFF74AFECFE7FFF747FEDCE7EE
:10091C00FFF744FEE8E700BF740000200000014030
:10092C0008B50A480A4B03604FF4E13343600023D7
:10093C008360C36003610C2242618361C36101F077
:10094C00F1F900B908BDFFF729FEFBE7BC00002058
:10095C000014014000B589B0002303930493059360
:10096C00069307930268154B9A4202D009B05DF8C2
:10097C0004FB0021019103F592335A6C42F02002E2
:10098C005A645A6C02F020020192019A02911A6B7D
:10099C0042F004021A631B6B03F004030293029BE4
:1009AC00C023039302230493032306930823079382
:1009BC0003A9034800F012F9D8E700BF0014014066
:1009CC0000080240DFF834D0FFF7A0FE0C480D49B8
:1009DC000D4A002302E0D458C4500433C4188C428E
:1009EC00F9D30A4A0A4C002301E013600432A242F4
:1009FC00FBD301F0EBF9FFF72DFE7047000003204D
:100A0C0000000020100000203C1F000810000020F7
:100A1C00A0020020FEE7000010B504460E4B1A7829
:100A2C004FF47A73B3FBF2F30C4A1068B0FBF3F09B
:100A3C0000F0C0F868B90F2C01D901200AE000229F
:100A4C0021464FF0FF3000F0A1F8054B1C60002050
:100A5C0000E0012010BD00BF0400002000000020B9
:100A6C000800002008B50B4B1A6842F400721A609B
:100A7C001A6842F480621A601A6842F480721A6032
:100A8C00032000F071F80F20FFF7C6FFFFF706FEFA
:100A9C00002008BD003C0240034A1168034B1B7840
:100AAC000B441360704700BF0401002004000020B9
:100ABC00014B1868704700BF0401002038B504468C
:100ACC00FFF7F6FF0546B4F1FF3F02D0044B1B784D
:100ADC001C44FFF7EDFF401BA042FAD338BD00BF0A
:100AEC0004000020002807DB00F01F02400901234E
:100AFC009340024A42F82030704700BF00E100E00A
:100B0C00002808DB0901C9B200F1604000F5614022
:100B1C0080F80013704700F00F000901C9B2014BB7
:100B2C001954704714ED00E000B500F00700C0F157
:100B3C00070CBCF1040F28BF4FF0040C031D062B4F
:100B4C000FD9C31E4FF0FF3E0EFA0CF021EA000144
:100B5C0099400EFA03FE22EA0E0241EA02005DF809
:100B6C0004FB0023EEE70000074AD36823F4E0639C
:100B7C001B041B0C000200F4E060034343F0BF6352
:100B8C0043F40033D360704700ED00E010B5044629
:100B9C00054BD868C0F30220FFF7C6FF014620467C
:100BAC00FFF7AEFF10BD00BF00ED00E008B5FFF78A
:100BBC0099FF08BD0138B0F1807F0BD24FF0E023D4
:100BCC005861054AF02182F8231000209861072211
:100BDC001A6170470120704700ED00E000230F2BD5
:100BEC0000F2F98030B583B069E085684FEA430EB6
:100BFC00032404FA0EF425EA0405CC6804FA0EF476
:100C0C002C438460446824EA02044A68C2F300124C
:100C1C009A402243426060E0DC08083450F82420FB
:100C2C0003F00705AD004FF00F0E0EFA05FE22EA99
:100C3C000E0E0A69AA4042EA0E0240F8242060E037
:100C4C00092200E0002202FA0EF22A430234624D1D
:100C5C0045F82420614A94686FEA0C0224EA0C05DA
:100C6C00D1F804E01EF4801F01D04CEA04055B4C63
:100C7C00A560E46802EA0405D1F804E01EF4001F44
:100C8C0001D04CEA0405554CE560646802EA0405A1
:100C9C00D1F804E01EF4003F01D04CEA04054F4C9F
:100CAC006560246822404D6815F4803F01D04CEA01
:100CBC0004024A4C226001330F2B00F28A8001227D
:100CCC009A400C6804EA020C32EA0404F3D14C6832
:100CDC0004F00304013C012C87D94A6802F003029A
:100CEC00032A09D0C4685D000322AA4024EA020446
:100CFC008A68AA402243C2604A6802F00302022AB0
:100D0C008AD004684FEA430E032202FA0EF224EA58
:100D1C0002044A6802F0030202FA0EF22243026055
:100D2C004A6812F4403FC6D0002201922C4A546CFF
:100D3C0044F480445464526C02F480420192019A4F
:100D4C009C08A51C244A52F8255003F0030E4FEAC8
:100D5C008E0E0F2202FA0EF225EA0205214A90426B
:100D6C003FF470AF02F58062904222D002F58062AF
:100D7C00904220D002F5806290421ED002F5806233
:100D8C0090421CD002F5806290421AD002F580622B
:100D9C00904218D002F58062904216D002F5806223
:100DAC00904214D002F5806290423FF449AF0A227F
:100DBC0049E7012247E7022245E7032243E70422E1
:100DCC0041E705223FE706223DE707223BE70822E1
:100DDC0039E703B030BD704700380140003C01409A
:100DEC0000380240000002400AB1816170470904DA
:100DFC0081617047436901EA030221EA030141EA78
:100E0C00024181617047000010B582B0002301934C
:100E1C00194B1A6C42F080521A641B6C03F080530D
:100E2C000193019B154B01221A64FFF741FE044606
:100E3C00134B5B6813F4803F08D1FFF739FE001B9E
:100E4C00B0F57A7FF4D9032002B010BD0B4B012210
:100E5C005A64FFF72DFE0446094B5B6813F4003F00
:100E6C0007D1FFF725FE001BB0F57A7FF4D90320DC
:100E7C00EAE70020E8E700BF0038024000000E421D
:100E8C0000700040002800F0E08170B582B004468C
:100E9C00036813F0010F3BD09F4B9B6803F00C03CE
:100EAC00042B2CD09C4B9B6803F00C03082B21D0FB
:100EBC006368B3F5803F4FD0B3F5A02F52D0964B5B
:100ECC001A6822F480321A601A6822F480221A609E
:100EDC006368002B50D0FFF7EBFD05468E4B1B686B
:100EEC0013F4003F14D1FFF7E3FD401B6428F5D940
:100EFC000320B1E1884B5B6813F4800FD8D0864B8C
:100F0C001B6813F4003F03D06368002B00F09F8133
:100F1C00236813F0020F54D07F4B9B6813F00C0F17
:100F2C003ED07D4B9B6803F00C03082B33D0E36859
:100F3C00002B68D0794B01221A60FFF7B9FD0546EA
:100F4C00754B1B6813F0020F54D1FFF7B1FD401B1A
:100F5C000228F5D903207FE16F4A136843F48033EC
:100F6C001360B5E76C4B1A6842F480221A601A6859
:100F7C0042F480321A60ABE7FFF79AFD0546664BE8
:100F8C001B6813F4003FC3D0FFF792FD401B64288D
:100F9C00F5D9032060E1604B5B6813F4800FC6D178
:100FAC005D4B1B6813F0020F03D0E368012B40F07C
:100FBC005081594A136823F0F803216943EAC103AD
:100FCC001360236813F0080F42D063696BB3534B63
:100FDC000122C3F8802EFFF76BFD05464E4B5B6F6D
:100FEC0013F0020F34D1FFF763FD401B0228F5D933
:100FFC00032031E1484A136823F0F803216943EADE
:10100C00C1031360DDE7454B00221A60FFF750FD6A
:10101C000546414B1B6813F0020FD2D0FFF748FD79
:10102C00401B0228F5D9032016E13C4B0022C3F8E3
:10103C00802EFFF73DFD0546374B5B6F13F0020F1B
:10104C0006D0FFF735FD401B0228F5D9032003E13C
:10105C00236813F0040F77D02F4B1B6C13F0805FB9
:10106C0033D1002301932C4B1A6C42F080521A643A
:10107C001B6C03F080530193019B0125284B1B68CB
:10108C0013F4807F23D0A368012B34D0052B38D0E8
:10109C00214B1A6F22F001021A671A6F22F0040218
:1010AC001A67A368002B3DD0FFF702FD06461A4BCA
:1010BC001B6F13F0020F46D1FFF7FAFC801B41F2B5
:1010CC0088339842F3D90320C6E00025D6E7144AAA
:1010DC00136843F480731360FFF7EAFC0646104B69
:1010EC001B6813F4807FCED1FFF7E2FC801B022833
:1010FC00F5D90320B0E0084A136F43F001031367DE
:10110C00CFE7054B1A6F42F004021A671A6F42F0D0
:10111C0001021A67C5E700BF0038024000004742D1
:10112C0000700040FFF7C4FC0646524B1B6F13F0D7
:10113C00020F08D0FFF7BCFC801B41F288339842A9
:10114C00F3D9032088E0EDB9A369002B00F083806C
:10115C00484A926802F00C02082A51D0022B17D090
:10116C00454B00221A66FFF7A3FC0446414B1B6853
:10117C0013F0007F42D0FFF79BFC001B0228F5D92F
:10118C00032069E03B4A136C23F080531364DBE7C4
:10119C00394B00221A66FFF78BFC0546354B1B6852
:1011AC0013F0007F06D0FFF783FC401B0228F5D913
:1011BC00032051E0E369226A1343626A43EA821313
:1011CC00A26A5208013A43EA0243E26A43EA026322
:1011DC00284A5360284B01221A66FFF769FC044623
:1011EC00244B1B6813F0007F06D1FFF761FC001B3A
:1011FC000228F5D903202FE000202DE000202BE061
:10120C00012B2BD01B4B5B6803F48001E2699142EC
:10121C0026D103F03F02216A8A4223D1616A47F644
:10122C00C0721A40B2EB811F1ED103F44031A26A86
:10123C005208013AB1EB024F18D103F07063E26A25
:10124C00B3EB026F14D1002006E00120704701209F
:10125C0002E0012000E0002002B070BD0120FBE79D
:10126C000120F9E70120F7E70120F5E70120F3E77A
:10127C000120F1E7003802400000474208B5264B38
:10128C009B6803F00C03042B41D0082B41D1224B5B
:10129C005A6802F03F025B6813F4800F12D01E4BA9
:1012AC005968C1F388111D480023A1FB0001FEF70A
:1012BC0097FF194B5B68C3F3014301335B00B0FB31
:1012CC00F3F027E0144B5868C0F388104FEA401C29
:1012DC00BCEB000C6EEB0E0E4FEA8E1343EA9C63D4
:1012EC004FEA8C11B1EB0C0163EB0E03DB0043EA0C
:1012FC005173C90011EB000C43F100039902002358
:10130C004FEA8C2041EA9C51FEF76AFFD1E7034873
:10131C0000E0034808BD00BF00380240001BB700C6
:10132C000024F400002800F09B8070B50D460446A4
:10133C004F4B1B6803F00F038B4208D2CBB24C4AC5
:10134C001370136803F00F038B4240F08B802368FB
:10135C0013F0020F17D013F0040F04D0454A936812
:10136C0043F4E0539360236813F0080F04D0414A10
:10137C00936843F4604393603E4A936823F0F00310
:10138C00A1680B439360236813F0010F32D063689C
:10139C00012B21D09A1E012A25D9364A126812F047
:1013AC00020F61D033498A6822F0030213438B6029
:1013BC00FFF77EFB06462F4B9B6803F00C0362681D
:1013CC00B3EB820F16D0FFF773FB801B41F288330F
:1013DC009842F0D9032042E0264A126812F4003FEA
:1013EC00E0D101203BE0234A126812F0007FD9D1F2
:1013FC00012034E01E4B1B6803F00F03AB4207D9EE
:10140C00EAB21B4B1A701B6803F00F03AB422DD1D1
:10141C00236813F0040F06D0164A936823F4E053A4
:10142C00E1680B439360236813F0080F07D0114A4F
:10143C00936823F46043216943EAC1039360FFF787
:10144C001DFF0C4B9B68C3F303130B4AD35CD840B2
:10145C000A4B18600A4B1868FFF7DEFA002070BDC3
:10146C00012070470120FAE70120F8E70120F6E798
:10147C00003C024000380240181F00080000002009
:10148C0008000020014B1868704700BF00000020C6
:10149C0008B5FFF7F7FF044B9B68C3F38223034A9D
:1014AC00D35CD84008BD00BF00380240101F0008B4
:1014BC0008B5FFF7E7FF044B9B68C3F34233034ABD
:1014CC00D35CD84008BD00BF00380240101F000894
:1014DC0030B4036A026A22F0010202624268846933
:1014EC0024F0730C0C6844EA0C0423F0020C8B6897
:1014FC0043EA0C03114DA84203D005F58065A842C0
:10150C0005D123F00803CD682B4323F004030B4DC6
:10151C00A84203D005F58065A84207D122F4407299
:10152C004D6945EA020C8A6942EA0C024260846108
:10153C004A684263036230BC704700BF0000014040
:10154C0030B4036A026A22F4807202624268C4698F
:10155C0024F0730C0C6844EA0C0523F400738C68BB
:10156C0043EA0423114CA04203D004F58064A0424A
:10157C0006D123F40063CC6843EA042323F480638C
:10158C000A4CA04203D004F58064A04207D122F497
:10159C0040524C6942EA04128C6942EA04124260DD
:1015AC00C5614A68C263036230BC704700000140E9
:1015BC0030B4036A026A22F4805202624468C2693F
:1015CC0022F4E6420D6842EA052223F400538D68AA
:1015DC0043EA0533094DA84203D005F58065A842BE
:1015EC0004D124F480444D6944EA85144460C261FA
:1015FC004A680264036230BC704700BF00000140BF
:10160C0010B4036A046A24F001040462846924F0AF
:10161C00F00C4CEA021223F00A030B4382610362C2
:10162C0010BC704710B4036A046A24F010040462FE
:10163C00846924F4704C4CEA023223F0A00343EA90
:10164C0001138261036210BC7047836823F070033E
:10165C000B4343F007038360704770477047704734
:10166C007047704770B504460368DE681D6915F055
:10167C00020F10D016F0020F0DD06FF002021A619B
:10168C000123037703689B6913F0030F5ED0FFF708
:10169C00E6FF0023237715F0040F12D016F0040F89
:1016AC000FD023686FF004021A610223237723689A
:1016BC009B6913F4407F4FD02046FFF7D0FF0023E7
:1016CC00237715F0080F12D016F0080F0FD02368EF
:1016DC006FF008021A61042323772368DB6913F087
:1016EC00030F40D02046FFF7BAFF0023237715F0F5
:1016FC00100F12D016F0100F0FD023686FF01002DD
:10170C001A61082323772368DB6913F4407F31D0F7
:10171C002046FFF7A4FF0023237715F0010F02D01A
:10172C0016F0010F2DD115F0800F02D016F0800F9E
:10173C002FD115F0400F02D016F0400F31D115F01B
:10174C00200F02D016F0200F33D170BDFFF786FFAB
:10175C002046FFF785FF9CE72046FFF77FFF2046DA
:10176C00FFF77EFFABE72046FFF778FF2046FFF739
:10177C0077FFBAE72046FFF771FF2046FFF770FFAF
:10178C00C9E723686FF001021A612046FEF7A0FE3C
:10179C00C9E723686FF080021A61204600F038FA1E
:1017AC00C7E723686FF040021A612046FFF759FF24
:1017BC00C5E723686FF020021A61204600F027FA73
:1017CC00C3E700000368344A904212D0B0F1804F56
:1017DC000FD0A2F57C4290420BD002F58062904271
:1017EC0007D002F58062904203D002F57842904215
:1017FC0003D123F070034A681343274A90422AD03E
:10180C00B0F1804F27D0A2F57C42904223D002F554
:10181C00806290421FD002F5806290421BD002F58C
:10182C007842904217D002F57052904213D002F5D4
:10183C00806290420FD002F5806290420BD0A2F5EC
:10184C009832904207D002F58062904203D002F5A4
:10185C008062904203D123F44073CA68134323F08F
:10186C0080034A69134303608B68C3620B6883620D
:10187C00094B984203D003F58063984201D10B6960
:10188C00036301234361036913F0010F03D0036960
:10189C0023F00103036170470000014040B310B511
:1018AC00044690F83D30F3B1022384F83D302146D4
:1018BC0051F8040BFFF786FF012384F8463084F8B7
:1018CC003E3084F83F3084F8403084F8413084F85E
:1018DC00423084F8433084F8443084F8453084F83E
:1018EC003D30002010BD80F83C30FEF739FFDBE7BF
:1018FC000120704740B310B5044690F83D30F3B169
:10190C00022384F83D30214651F8040BFFF75AFFAF
:10191C00012384F8463084F83E3084F83F3084F854
:10192C00403084F8413084F8423084F8433084F8F5
:10193C00443084F8453084F83D30002010BD80F8E8
:10194C003C30FFF78AFEDBE70120704730B4036AB6
:10195C00026A22F0100202624468826922F4E642B2
:10196C000D6842EA052223F020038D6843EA051333
:10197C00114DA84203D005F58065A84206D123F08D
:10198C008003CD6843EA051323F040030A4DA842B7
:10199C0003D005F58065A84207D124F440644D6955
:1019AC0044EA85048D6944EA8504446082614A688E
:1019BC008263036230BC70470000014090F83C30F9
:1019CC00012B28D010B50446012380F83C300C2A9A
:1019DC001CD8DFE802F0071B1B1B0C1B1B1B111B6D
:1019EC001B1B16000068FFF773FD00200FE000685A
:1019FC00FFF7ACFF00200AE00068FFF7A1FD002014
:101A0C0005E00068FFF7D4FD002000E00120002372
:101A1C0084F83C3010BD0220704710B4846824F464
:101A2C007F4C42EA03220A4342EA0C02826010BC59
:101A3C00704790F83C30012B78D010B50446012348
:101A4C0080F83C30022380F83D300268936823F420
:101A5C007F4323F0770393600B68602B4CD029D81D
:101A6C00402B54D00CD9502B22D1CA68496800683D
:101A7C00FFF7C6FD50212068FFF7E7FD002005E0C9
:101A8C00202B0DD009D9302B0AD00120012384F84A
:101A9C003D30002384F83C3010BD0BB1102B05D128
:101AAC0019462068FFF7D1FD0020EFE70120EDE794
:101ABC000120EBE7B3F5805F34D0B3F5005F0CD1B8
:101ACC00CB684A6889680068FFF7A7FF22689368AB
:101ADC0043F4804393600020D8E7702B24D1CB686B
:101AEC004A6889680068FFF798FF2268936843F09A
:101AFC00770393600020C9E7CA6849680068FFF75C
:101B0C0091FD60212068FFF7A0FD0020BEE7CA68A8
:101B1C0049680068FFF774FD40212068FFF795FDC8
:101B2C000020B3E70020B1E70120AFE702207047A7
:101B3C0090F83C20012A3CD010B40346012280F8D6
:101B4C003C20022280F83D2002685068946820F006
:101B5C00700C086840EA0C0050601A681648824203
:101B6C001AD0B2F1804F17D0A0F57C40824213D02E
:101B7C0000F5806082420FD000F5806082420BD06D
:101B8C0000F57840824207D000F57050824203D0B5
:101B9C00A0F59430824204D124F08004496821439A
:101BAC009160012283F83D20002083F83C0010BC9A
:101BBC0070470220704700BF00000140024690F8B9
:101BCC003C30012B21D0012380F83C30CB6823F42E
:101BDC0040738868034323F480634868034323F409
:101BEC0000630868034323F480530869034323F418
:101BFC0000534869034323F48043C9690B431168BC
:101C0C004B64002082F83C007047022070477047FC
:101C1C007047000010B504460268136923F4405362
:101C2C00C1680B431361836802691A4343691A4301
:101C3C00C3691A430168CB6823F4164323F00C03E1
:101C4C001343CB600268536923F4407381690B43DF
:101C5C0053610368314A934206D002F58062934285
:101C6C0002D0FFF715FC01E0FFF722FCE369B3F5A6
:101C7C00004F29D00021031849411B1841F10001E4
:101C8C00C90041EA5371DB00181863684FEA8302FC
:101C9C004FEA937341F10001FEF7A2FA204AA2FB2E
:101CAC0000314909642303FB11031B013233A2FBEE
:101CBC0003235B0903F0F00202EB011203F00F03A4
:101CCC00216813448B6010BD0023021843EB030101
:101CDC00121841F10001C90041EA5271D2001018EA
:101CEC0041F10001626892185B41FEF779FA0C4AE7
:101CFC00A2FB00314909642303FB1103DB003233DF
:101D0C00A2FB03235B095A0002F4F87202EB0112E6
:101D1C0003F00703216813448B60D4E700100140E3
:101D2C001F85EB5160B310B5044690F8413013B3E6
:101D3C00242384F841302268D36823F40053D36001
:101D4C002046FFF767FF2268136923F49043136161
:101D5C002268536923F02A0353612268D36843F441
:101D6C000053D36000206064202384F8413084F851
:101D7C004230606310BD80F84030FEF7EBFDD7E7D2
:101D8C000120704790F84130DBB2202B10D189B183
:101D9C0092B101628284C28400234364212280F8C0
:101DAC0041200168CA6842F08002CA601846704738
:101DBC0002207047012070470120704702440346FF
:101DCC00934200D1704703F8011BF9E770B50D4D34
:101DDC000D4C641BA4100026A64209D10B4D0C4CD3
:101DEC0000F07EF8641BA4100026A64205D170BD3D
:101DFC0055F8043B98470136EEE755F8043B9847F5
:101E0C000136F2E7301F0008301F0008301F0008B1
:101E1C00381F000870477047024B13B1024800F09E
:101E2C0005B8704700000000451E0008002301465D
:101E3C001A46184600F014B838B5074D074C641B09
:101E4C00A4101CB9BDE8384000F050B8013C55F85E
:101E5C0024309847F5E700BF381F00083C1F0008E6
:101E6C002DE9F047DFF86CA00646DAF8000098463A
:101E7C000F469146FFF7CEFF174B1C680CB9174C59
:101E8C001C606568DAF800001F2D05DDFFF7C3FF45
:101E9C004FF0FF30BDE8F0879EB104EB85010122C5
:101EAC00C1F88890D4F88831AA401343C4F888311B
:101EBC00022EC1F8088102BFD4F88C311343C4F848
:101ECC008C316B1C0235636044F82570FFF7A3FF5F
:101EDC000020DFE70C0000200C0100201001002086
:101EEC00F8B500BFF8BC08BC9E467047F8B500BFFB
:081EFC00F8BC08BC9E467047CB
:101F040048656C6C20576F726C6400000000000020
:101F140001020304000000000000000001020304A9
:041F2400060708099B
:081F2800F4E2FF7F010000005C
:081F3000251E0008D101000884
:041F3800AD010008EF
:101F3C000024F40001000000100000000801002043
:04000005080009D115
:00000001FF
